:040000005BEF00F0C2
:10000800FACF0CF0FBCF0DF0E9CF0EF0EACF0FF0EE
:10001800E1CF10F0E2CF11F0D9CF12F0DACF13F020
:10002800F3CF14F0F4CF15F0F6CF16F0F7CF17F0A2
:10003800F8CF18F0F5CF19F0F2A21CD04428446E7E
:10004800010E0001646F010E0001606F000E0001D7
:10005800616F000E0001626F000E0001636FF40E05
:10006800016E010E026E000E036E000E046EF9ECB6
:1000780006F0F29219C0F5FF18C0F8FF17C0F7FF95
:1000880016C0F6FF15C0F4FF14C0F3FF13C0DAFF63
:1000980012C0D9FF11C0E2FF10C0E1FF0FC0EAFF94
:1000A8000EC0E9FF0DC0FBFF0CC0FAFF1100F9EF0D
:1000B80007F027C01AF028C01BF029C01CF02AC07E
:1000C8001DF0100E1E6E270E1F6E000E206E000E05
:1000D800216E51EC05F01AC02CF01BC02DF01CC08D
:1000E8002EF01DC02FF02C50346E27C01AF028C0F7
:1000F8001BF029C01CF02AC01DF0100E1E6E270E22
:100108001F6E000E206E000E216ECDEC05F01AC099
:1001180035F01BC036F01CC037F01DC038F035C0B4
:100128001AF036C01BF037C01CF038C01DF0E80EBE
:100138001E6E030E1F6E000E206E000E216E51EC17
:1001480005F01AC02CF01BC02DF01CC02EF01DC0ED
:100158002FF02C50336E35C01AF036C01BF037C064
:100168001CF038C01DF0E80E1E6E030E1F6E000E48
:10017800206E000E216ECDEC05F01AC035F01BC0C4
:1001880036F01CC037F01DC038F035C01AF036C044
:100198001BF037C01CF038C01DF0640E1E6E000E38
:1001A8001F6E000E206E000E216E51EC05F01AC075
:1001B8002CF01BC02DF01CC02EF01DC02FF02C50B1
:1001C800326E35C01AF036C01BF037C01CF038C08C
:1001D8001DF0640E1E6E000E1F6E000E206E000EC7
:1001E800216ECDEC05F01AC035F01BC036F01CC0EE
:1001F80037F01DC038F035C01AF036C01BF037C0D4
:100208001CF038C01DF00A0E1E6E000E1F6E000E88
:10021800206E000E216E51EC05F01AC02CF01BC0A8
:100228002DF01CC02EF01DC02FF02C50316E35C0A3
:100238001AF036C01BF037C01CF038C01DF00A0E8B
:100248001E6E000E1F6E000E206E000E216ECDEC8D
:1002580005F01AC02CF01BC02DF01CC02EF01DC0DC
:100268002FF02C50306E3450D8B404D03450300FA6
:10027800BCEC07F0336603D03450D8B404D0335004
:10028800300FBCEC07F02B50030AD8A409D02A5031
:10029800271028102910D8B403D02C0EBCEC07F076
:1002A800326605D0336603D03450D8B404D0325007
:1002B800300FBCEC07F02B50020AD8A409D02A5002
:1002C800271028102910D8B403D02C0EBCEC07F046
:1002D800316607D0326605D0336603D03450D8B4BF
:1002E80004D03150300FBCEC07F02B04D8A409D04F
:1002F8002A50271028102910D8B403D02C0EBCEC93
:1003080007F03050300FBCEC07F012002A042B1015
:100318002C102D10D8A413D0010EA7EC07F0020E54
:100328001A6E000E1B6E000E1C6E000E1D6ED8ECB1
:1003380006F0FF0E1F6E270E1E6E8FEC07F02FC003
:1003480029F02EC028F03AEC07F0316E30503162B7
:1003580006D02A042B102C102D10D8A4B6D0C00E0D
:10036800A7EC07F0FE0E1F6ED90E1E6E8FEC07F07D
:10037800C00EA7EC07F077D0FF0E1F6EF00E1E6EB2
:100388008FEC07F0A2D0FF0E1F6E850E1E6E8FEC4D
:1003980007F09BD0FF0E1F6E8A0E1E6E8FEC07F0C3
:1003A80094D0FF0E1F6EA10E1E6E8FEC07F08DD03D
:1003B800FF0E1F6E8F0E1E6E8FEC07F086D0FF0E9D
:1003C8001F6EC70E1E6E8FEC07F07FD0FF0E1F6EDC
:1003D800BF0E1E6E8FEC07F078D0FF0E1F6EBB0E9F
:1003E8001E6E8FEC07F071D0FF0E1F6EFA0E1E6E98
:1003F8008FEC07F06AD0FF0E1F6E930E1E6E8FEC07
:1004080007F063D0FF0E1F6E970E1E6E8FEC07F07D
:100418005CD0FF0E1F6E590E1E6E8FEC07F055D084
:10042800FF0E1F6E530E1E6E8FEC07F04ED0FF0EA0
:100438001F6E380E1E6E8FEC07F047D0FF0E1F6E32
:100448004E0E1E6E8FEC07F040D0FF0E1F6E490E49
:100458001E6E8FEC07F039D0FF0E1F6EEA0E1E6E6F
:100468008FEC07F032D03150000AD8B485D7010A92
:10047800D8B489D7030AD8B48DD7010AD8B491D78C
:10048800070AD8B495D7010AD8B499D7030AD8B4BB
:100498009DD7010AD8B4A1D70F0AD8B4A5D7010AA5
:1004A800D8B4A9D7030AD8B4ADD7010AD8B4B1D7FC
:1004B800070AD8B4B5D7010AD8B4B9D7030AD8B44B
:1004C800BDD7010AD8B4C1D7C7D731C030F01200A0
:1004D8001A0E0001A56F180E0001A66F59EC07F05F
:1004E8000AEC08F007EC05F0A5C01BF0A6C01CF04C
:1004F8000A0EB1EC06F0E5EC07F0AA0E1AEC07F0CC
:100508000001A76F0001000E1B6E0001650E1A6E38
:1005180089EC06F0000E0001646F5AD060C097F0B5
:1005280061C098F062C099F063C09AF0A7C09BF0D0
:1005380092EC05F05DD060C097F061C098F062C0A1
:1005480099F063C09AF00001000E00019C6F000151
:10055800650E00019B6F9AEC04F04AD060C097F0DA
:1005680061C098F062C099F063C09AF00001000E73
:1005780000019C6F0001650E00019B6F2DEC04F0DB
:1005880037D060C02AF061C02BF062C02CF063C085
:100598002DF00001000E2F6E0001650E2E6E8AEC04
:1005A80001F026D0010EA7EC07F0020E1A6E000E1D
:1005B8001B6E000E1C6E000E1D6ED8EC06F0FF0EB2
:1005C8001F6EAE0E1E6E8FEC07F0000E446E10D03C
:1005D8004450010AD8B4A2D7030AD8B4ACD7010A48
:1005E800D8B4BCD7070AD8B4CCD7010AD8B4DAD75C
:1005F800000164670AD0010E00016027000E0001A7
:100608006123000162230001632376EC07F00001F7
:10061800A76F80D70C0E1A6E29C01CF028C01BF0DB
:10062800010E1D6E080E2FEC06F03E6E100E1A6EAF
:1006380029C01CF028C01BF0010E1D6E0C0E2FECFB
:1006480006F0406E140E1A6E29C01CF028C01BF06C
:10065800010E1D6E100E2FEC06F0426E200E1A6E63
:1006680029C01CF028C01BF0000E1D6E1C0E2FECBC
:1006780006F03F6E240E1A6E29C01CF028C01BF02D
:10068800000E1D6E200E2FEC06F0416E280E1A6E1D
:1006980029C01CF028C01BF0000E1D6E240E2FEC84
:1006A80006F0436E3F503E6241D0415040623ED01A
:1006B800435042623BD040502C6E2D6A2C3A2D3A62
:1006C800F00E2D162C500F0B2D12F00E2C1642503A
:1006D8002F6E2E6A2C502E262D502F223E502E265D
:1006E800000E2F222EC030F02FC031F0000E31BE88
:1006F800FF0E326E336E30C01AF031C01BF032C0BC
:100708001CF033C01DF0240E1E6E000E1F6E000E6E
:10071800206E000E216E5EEC06F01AC030F01BC091
:1007280031F01CC032F01DC033F008D09A0E306E84
:10073800020E316E000E326E000E336E30C028F09D
:1007480031C029F032C02AF033C02BF012000C0E51
:100758001A6E29C01CF028C01BF0010E1D6E080E71
:100768002FEC06F03E6E100E1A6E29C01CF028C041
:100778001BF0010E1D6E0C0E2FEC06F0406E140ED1
:100788001A6E29C01CF028C01BF0010E1D6E100E39
:100798002FEC06F0426E200E1A6E29C01CF028C0FD
:1007A8001BF0000E1D6E1C0E2FEC06F03F6E240E83
:1007B8001A6E29C01CF028C01BF0000E1D6E200EFA
:1007C8002FEC06F0416E280E1A6E29C01CF028C0C6
:1007D8001BF0000E1D6E240E2FEC06F0436E3F50EA
:1007E8003E6226D04150406223D04350426220D01E
:1007F80040502C6E2D6A2C3A2D3AF00E2D162C50A6
:100808000F0B2D12F00E2C1642502F6E2E6A2C5004
:100818002E262D502F223E502E26000E2F222EC07F
:1008280030F02FC031F0000E31BEFF0E326E07D00F
:100838009A0E306E020E316E000E326E000E336E5E
:1008480030C028F031C029F032C02AF033C02BF074
:10085800120000019705981199119A11D8A413D084
:10086800010EA7EC07F0020E1A6E000E1B6E000EAA
:100878001C6E000E1D6ED8EC06F0FF0E1F6E150ED6
:100888001E6E8FEC07F000019CC029F000019BC090
:1008980028F0ABEC03F028C0A1F029C0A2F02AC0D0
:1008A800A3F02BC0A4F00001A0510001A4190EE18F
:1008B80000019F510001A31909E100019E510001A7
:1008C800A21904E100019D510001A119D8A407D083
:1008D80000019705981199119A11D8A41ED0C00E3D
:1008E800A7EC07F0FE0E1F6ED90E1E6E8FEC07F0F8
:1008F800C00EA7EC07F0A1C027F0A2C028F0A3C043
:1009080029F0A4C02AF0010E2B6E5DEC00F0FF0E5A
:100918001F6EF50E1E6E8FEC07F0A1C09DF0A2C0F1
:100928009EF0A3C09FF0A4C0A0F01200000197059C
:10093800981199119A11D8A413D0010EA7EC07F0B9
:10094800020E1A6E000E1B6E000E1C6E000E1D6E3F
:10095800D8EC06F0FF0E1F6E150E1E6E8FEC07F01A
:1009680000019CC029F000019BC028F00EEC03F0A8
:1009780028C0A1F029C0A2F02AC0A3F02BC0A4F07F
:100988000001A0510001A4190EE100019F510001CE
:10099800A31909E100019E510001A21904E1000117
:1009A8009D510001A119D8A407D0000197059811FD
:1009B80099119A11D8A41ED0C00EA7EC07F0FE0E0C
:1009C8001F6ED90E1E6E8FEC07F0C00EA7EC07F055
:1009D800A1C027F0A2C028F0A3C029F0A4C02AF023
:1009E800020E2B6E5DEC00F0FF0E1F6EE40E1E6E05
:1009F8008FEC07F0A1C09DF0A2C09EF0A3C09FF0AD
:100A0800A4C0A0F01200380EA7EC07F0050E1A6E6D
:100A1800000E1B6E000E1C6E000E1D6ED8EC06F04C
:100A2800380EA7EC07F0050E1A6E000E1B6E000EAE
:100A38001C6E000E1D6ED8EC06F0380EA7EC07F001
:100A4800050E1A6E000E1B6E000E1C6E000E1D6E3B
:100A5800D8EC06F0380EA7EC07F0050E1A6E000E5B
:100A68001B6E000E1C6E000E1D6ED8EC06F00F0EED
:100A7800A7EC07F0060EA7EC07F0010EA7EC07F0AD
:100A8800020E1A6E000E1B6E000E1C6E000E1D6EFE
:100A9800D8EC06F000EC06F01200000E226E000EF4
:100AA800236E000E246E000E256E21501E101F109E
:100AB8002010D8B42AD0010E266E06D0D8901E3643
:100AC8001F3620362136262A21AEF8D7D89022366E
:100AD8002336243625361E501A5C1F501B582050CA
:100AE8001C5821501D58D8A009D01E501A5E1F50FE
:100AF8001B5A20501C5A21501D5A2280D89021324E
:100B080020321F321E32262EE1D722C01AF023C00F
:100B18001BF024C01CF025C01DF012000001970531
:100B2800981199119A11D8A416D0010EA7EC07F0C4
:100B3800020E1A6E000E1B6E000E1C6E000E1D6E4D
:100B4800D8EC06F0020EA7EC07F0FF0E1F6E690E38
:100B58001E6E8FEC07F0395000019B6307D000012F
:100B68009705981199119A11D8A410D0C00EA7EC26
:100B780007F000019B51276E286A296A2A6A000E2D
:100B88002B6E5DEC00F0DF0EBCEC07F09BC039F07B
:100B9800120021501E101F102010D8B424D0010EAE
:100BA800226E06D0D8901E361F3620362136222ACD
:100BB80021AEF8D71E501A5C1F501B5820501C58E5
:100BC80021501D58D8A008D01E501A5E1F501B5A1D
:100BD80020501C5A21501D5AD890213220321F32E1
:100BE8001E32222EE7D71AC01AF01BC01BF01CC0F9
:100BF8001CF01DC01DF01200FF0E1F6ED30E1E6EDE
:100C08008FEC07F0C00EA7EC07F0FF0E1F6EDC0E8E
:100C18001E6E8FEC07F0D00E1A6E070E1B6E000EBC
:100C28001C6E000E1D6ED8EC06F0020EA7EC07F045
:100C3800FF0E1F6E770E1E6E8FEC07F0C00EA7EC2E
:100C480007F0FF0E1F6E010E1E6E8FEC07F0020EEE
:100C5800A7EC07F01200226E1A50236E246A256A48
:100C6800266A11D027502724276E23501B24D96EBB
:100C780024501C20DA6EDF502710276E2306000E42
:100C8800245A255A265A22C01EF01F6A206A216A51
:100C980023501E5C24501F58255020582650215898
:100CA800D8A0E0D71D04D8B4271E27500F0B276EF5
:100CB80027501200000E226E000E236E000E246EC6
:100CC800000E256E1AA008D01E5022261F5023227F
:100CD8002050242221502522D8901E361F36203637
:100CE8002136D8901D321C321B321A321D501A1070
:100CF8001B101C10D8A4E6D722C01AF023C01BF082
:100D080024C01CF025C01DF01200819881AAFED7CE
:100D18003FEC08F03FEC08F03FEC08F0000E1D6EC9
:100D2800000E1C6E1D50800A800F2A0ED8B41C5C61
:100D3800D8B011D01C501A24D96E1D501B20DA6E61
:100D480081AA02D0010E01D0000EDF6E37EC08F048
:100D58001C4A1D2AE7D7818812001D6E59EC08F03D
:100D6800980E2DEC08F0AC0E2DEC08F01D502DEC73
:100D780008F051EC08F0980E2DEC08F0A10E2DECBF
:100D880008F01B502DEC08F051EC08F0980E2DECF3
:100D980008F0A20E2DEC08F01C502DEC08F055ECD4
:100DA80008F022EC08F01200000E246E000E236EEC
:100DB80004D045EC08F0234A242A23C01EF024C09E
:100DC8001FF0000E1FBEFF0E206E216E2150800AFC
:100DD800226E1A501E5C1B501F581C5020581D5064
:100DE800800A2258D8B01200E4D7000E0B6E000E0D
:100DF8000A6E04D04BEC08F00A4A0B2A0AC005F028
:100E08000BC006F0000E06BEFF0E076E086E0850F7
:100E1800800A096E0150055C0250065803500758B5
:100E28000450800A0958D8B01200E4D71E6E59EC55
:100E380008F0980E2DEC08F01E502DEC08F051EC3F
:100E480008F0990E2DEC08F0000E1B6E000E1A6EBD
:100E5800D1EC07F01F6E000E1B6E010E1A6ED1EC5E
:100E680007F01D6E55EC08F01F501200080E1A6EA0
:100E780029C01CF028C01BF0010E1D6E040E2FECBB
:100E880006F03B6E1C0E1A6E29C01CF028C01BF021
:100E9800000E1D6E180E2FEC06F03C6E3C503B62A7
:100EA80002D03B501200C80E1200000E0F01386F1E
:100EB800000E0F01396F000E0F013A6F000E926E8F
:100EC800A30E936E180E826E980E946E828E828C8C
:100ED800818E818C8188F28EF288700ED36EC40E5A
:100EE800D56E12004450020AD8B404D04450030A04
:100EF800D8A408D00001000E1B6E0001650E1A6E02
:100F080089EC06F04404D8A404D0AA0E1AEC07F021
:100F1800206E205012001EC0F6FF1FC0F7FF080009
:100F2800F550BCEC07F0010E1E241E6E000E1F20AB
:100F38001F6E1EC0F6FF1FC0F7FF0800F55000091E
:100F4800D8B41200E8D71D6E8B908B9400F000F097
:100F580000F000F01DC01BF07C0E16EC08F000F04D
:100F680000F000F000F08B8045EC08F08B90120048
:100F78001D6E8B808B8400F000F000F000F01DC027
:100F88001BF07C0E16EC08F000F000F000F000F00A
:100F98008B8045EC08F08B901200C5869E969EA625
:100FA800FED7C5B6FED71B501A10D8A402D0C59AD2
:100FB80001D0C58AC9CF1CF0C588C5B8FED71C505A
:100FC8001200040E726E900E716E500E706E000E4E
:100FD800766E190E756E728470967298729A718810
:100FE800718EA49AA38AF28C120000EE60F0370E7C
:100FF800EE6AE806FDE100EE3AF00B0EEE6AE8064E
:10100800FDE1000EF86E00016CEF02F0800EC76E75
:10101800280EC66E000EC56E080ECB6E270EC86E63
:101028009E9612001C6E59EC08F01C502DEC08F02E
:101038001B502DEC08F055EC08F0120059EC08F0A4
:10104800980E2DEC08F0EE0E2DEC08F055EC08F09B
:1010580012001A6E1AC0C9FF9E969EA6FED7C5BC7E
:10106800FED79E96120045EC08F0F294E70ED66E75
:10107800F2B41200FDD7F294E70ED66EF2B4120065
:10108800FDD7F294830ED66EF2B41200FDD7F29417
:10109800830ED66EF2B41200FDD7C582C5A2120027
:1010A800FDD7C584C5A41200FDD7C580C5A0120010
:0210B800FDD762
:10FED800002020202020202020202020202020203A
:10FEE800202020202020202020202020202020200A
:10FEF800202020202020202000766F747265207337
:10FF0800657276696365202121203A290056697453
:10FF1800657373652064752076656E74203A0044B5
:10FF28006972656374696F6E2076656E743A200035
:10FF38004F756573742F4E6F72642D4F75657374AA
:10FF4800004E6F72642F4E6F72642D4F7565737417
:10FF5800004F756573742F5375642D4F75657374F1
:10FF68000054656D7065726174757265203A00564B
:10FF7800494E5955204D6574656F2061004E6F726A
:10FF8800642F4E6F72642D457374005375642F533C
:10FF980075642D4F75657374004573742F4E6F72B9
:10FFA800642D457374005265746F757220446562E0
:10FFB8007574005375642F5375642D45737400452B
:10FFC80073742F5375642D45737400426F6E6A6F96
:10FFD80075722C0057656C636F6D6500204B6D2F33
:10FFE80048004572726F72004E6F726400206D2F68
:08FFF800730053756400000062
:020000040020DA
:08000000FFFFFFFFFFFFFFFF00
:020000040030CA
:0E000000FF28193CFFBD85FF0FC00FE00F4029
:00000001FF
